{
  "address": "0x95fdfdB212814f72F5E987FBA88169D148F5b54D",
  "abi": [
    {
      "inputs": [
        {
          "internalType": "address",
          "name": "_spender",
          "type": "address"
        },
        {
          "internalType": "address",
          "name": "_fees",
          "type": "address"
        },
        {
          "internalType": "address payable",
          "name": "_weth",
          "type": "address"
        },
        {
          "internalType": "address",
          "name": "_uniswapV2router02",
          "type": "address"
        }
      ],
      "stateMutability": "nonpayable",
      "type": "constructor"
    },
    {
      "anonymous": false,
      "inputs": [
        {
          "indexed": true,
          "internalType": "address",
          "name": "previousOwner",
          "type": "address"
        },
        {
          "indexed": true,
          "internalType": "address",
          "name": "newOwner",
          "type": "address"
        }
      ],
      "name": "OwnershipTransferred",
      "type": "event"
    },
    {
      "inputs": [],
      "name": "owner",
      "outputs": [
        {
          "internalType": "address",
          "name": "",
          "type": "address"
        }
      ],
      "stateMutability": "view",
      "type": "function"
    },
    {
      "inputs": [],
      "name": "renounceOwnership",
      "outputs": [],
      "stateMutability": "nonpayable",
      "type": "function"
    },
    {
      "inputs": [
        {
          "internalType": "address",
          "name": "newOwner",
          "type": "address"
        }
      ],
      "name": "transferOwnership",
      "outputs": [],
      "stateMutability": "nonpayable",
      "type": "function"
    },
    {
      "inputs": [
        {
          "internalType": "uint256",
          "name": "amountOut",
          "type": "uint256"
        },
        {
          "internalType": "address[]",
          "name": "path",
          "type": "address[]"
        },
        {
          "internalType": "address",
          "name": "to",
          "type": "address"
        },
        {
          "internalType": "uint256",
          "name": "slippage",
          "type": "uint256"
        },
        {
          "internalType": "uint256",
          "name": "deadline",
          "type": "uint256"
        }
      ],
      "name": "uniswapV2SwapExactETHForTokens",
      "outputs": [
        {
          "internalType": "uint256[]",
          "name": "amounts",
          "type": "uint256[]"
        }
      ],
      "stateMutability": "payable",
      "type": "function"
    },
    {
      "inputs": [
        {
          "internalType": "uint256",
          "name": "amountIn",
          "type": "uint256"
        },
        {
          "internalType": "uint256",
          "name": "amountOut",
          "type": "uint256"
        },
        {
          "internalType": "address[]",
          "name": "path",
          "type": "address[]"
        },
        {
          "internalType": "address",
          "name": "to",
          "type": "address"
        },
        {
          "internalType": "uint256",
          "name": "slippage",
          "type": "uint256"
        },
        {
          "internalType": "uint256",
          "name": "deadline",
          "type": "uint256"
        }
      ],
      "name": "uniswapV2SwapExactTokensForETH",
      "outputs": [
        {
          "internalType": "uint256[]",
          "name": "amounts",
          "type": "uint256[]"
        }
      ],
      "stateMutability": "payable",
      "type": "function"
    },
    {
      "inputs": [
        {
          "internalType": "uint256",
          "name": "amountIn",
          "type": "uint256"
        },
        {
          "internalType": "uint256",
          "name": "amountOut",
          "type": "uint256"
        },
        {
          "internalType": "address[]",
          "name": "path",
          "type": "address[]"
        },
        {
          "internalType": "address",
          "name": "to",
          "type": "address"
        },
        {
          "internalType": "uint256",
          "name": "slippage",
          "type": "uint256"
        },
        {
          "internalType": "uint256",
          "name": "deadline",
          "type": "uint256"
        }
      ],
      "name": "uniswapV2SwapExactTokensForTokens",
      "outputs": [
        {
          "internalType": "uint256[]",
          "name": "amounts",
          "type": "uint256[]"
        }
      ],
      "stateMutability": "payable",
      "type": "function"
    },
    {
      "inputs": [
        {
          "internalType": "address",
          "name": "token",
          "type": "address"
        },
        {
          "internalType": "address",
          "name": "recipient",
          "type": "address"
        }
      ],
      "name": "withdraw",
      "outputs": [],
      "stateMutability": "nonpayable",
      "type": "function"
    },
    {
      "stateMutability": "payable",
      "type": "receive"
    }
  ],
  "transactionHash": "0x2a34052cfb2dad880c9e5691f2c633a6f79f41d4eb62f1f383800afae6e9e350",
  "bytecode": "0x61010060405234801562000011575f80fd5b506040516200180b3803806200180b8339810160408190526200003491620000c9565b6200003f3362000062565b6001600160a01b0393841660805291831660e052821660c0521660a0526200012e565b5f80546001600160a01b038381166001600160a01b0319831681178455604051919092169283917f8be0079c531659141344cd1fd0a4f28419497f9722a3daafe3b4186f6b6457e09190a35050565b6001600160a01b0381168114620000c6575f80fd5b50565b5f805f8060808587031215620000dd575f80fd5b8451620000ea81620000b1565b6020860151909450620000fd81620000b1565b60408601519093506200011081620000b1565b60608601519092506200012381620000b1565b939692955090935050565b60805160a05160c05160e0516116716200019a5f395f818161026901528181610582015261083b01525f8181610156015261072a01525f81816101ac01528181610436015281816104bd015281816106f6015261078101525f818161034e015261060e01526116715ff3fe608060405260043610610071575f3560e01c80638da5cb5b1161004c5780638da5cb5b146100ce578063dead52a914610101578063f2fde38b14610114578063f940e38514610133575f80fd5b8063410e4f731461007c578063648bf06c146100a5578063715018a6146100b8575f80fd5b3661007857005b5f80fd5b61008f61008a36600461126c565b610152565b60405161009c91906112d0565b60405180910390f35b61008f6100b3366004611313565b61034a565b3480156100c3575f80fd5b506100cc6105f7565b005b3480156100d9575f80fd5b505f5460405173ffffffffffffffffffffffffffffffffffffffff909116815260200161009c565b61008f61010f366004611313565b61060a565b34801561011f575f80fd5b506100cc61012e366004611381565b610948565b34801561013e575f80fd5b506100cc61014d3660046113a1565b610a04565b60607f0000000000000000000000000000000000000000000000000000000000000000855f81518110610187576101876113d2565b73ffffffffffffffffffffffffffffffffffffffff92831660209182029290920101527f000000000000000000000000000000000000000000000000000000000000000016637ff36ab5346127108681038a02048830876040518663ffffffff1660e01b81526004016101fd949392919061144e565b5f6040518083038185885af1158015610218573d5f803e3d5ffd5b50505050506040513d5f823e601f3d908101601f19168201604052610240919081019061148f565b90508581600181518110610256576102566113d2565b6020026020010151111561030f576102ee7f0000000000000000000000000000000000000000000000000000000000000000878360018151811061029c5761029c6113d2565b60200260200101516102ae9190611510565b876001815181106102c1576102c16113d2565b602002602001015173ffffffffffffffffffffffffffffffffffffffff16610b1f9092919063ffffffff16565b8581600181518110610302576103026113d2565b6020026020010181815250505b6103418482600181518110610326576103266113d2565b6020026020010151876001815181106102c1576102c16113d2565b95945050505050565b60607f000000000000000000000000000000000000000000000000000000000000000073ffffffffffffffffffffffffffffffffffffffff166315dacbea865f8151811061039a5761039a6113d2565b60209081029190910101516040517fffffffff0000000000000000000000000000000000000000000000000000000060e084901b16815273ffffffffffffffffffffffffffffffffffffffff9091166004820152336024820152306044820152606481018a90526084015f604051808303815f87803b15801561041b575f80fd5b505af115801561042d573d5f803e3d5ffd5b505050506104957f000000000000000000000000000000000000000000000000000000000000000088875f81518110610468576104686113d2565b602002602001015173ffffffffffffffffffffffffffffffffffffffff16610bd59092919063ffffffff16565b6040517f38ed17390000000000000000000000000000000000000000000000000000000081527f000000000000000000000000000000000000000000000000000000000000000073ffffffffffffffffffffffffffffffffffffffff16906338ed173990610517908a906127108881038c0204908a903090899060040161154e565b5f604051808303815f875af1158015610532573d5f803e3d5ffd5b505050506040513d5f823e601f3d908101601f19168201604052610559919081019061148f565b9050858160018151811061056f5761056f6113d2565b602002602001015111156105d6576105b57f0000000000000000000000000000000000000000000000000000000000000000878360018151811061029c5761029c6113d2565b85816001815181106105c9576105c96113d2565b6020026020010181815250505b6105ed8482600181518110610326576103266113d2565b9695505050505050565b6105ff610d55565b6106085f610dd5565b565b60607f000000000000000000000000000000000000000000000000000000000000000073ffffffffffffffffffffffffffffffffffffffff166315dacbea865f8151811061065a5761065a6113d2565b60209081029190910101516040517fffffffff0000000000000000000000000000000000000000000000000000000060e084901b16815273ffffffffffffffffffffffffffffffffffffffff9091166004820152336024820152306044820152606481018a90526084015f604051808303815f87803b1580156106db575f80fd5b505af11580156106ed573d5f803e3d5ffd5b505050506107287f000000000000000000000000000000000000000000000000000000000000000088875f81518110610468576104686113d2565b7f00000000000000000000000000000000000000000000000000000000000000008560018151811061075c5761075c6113d2565b73ffffffffffffffffffffffffffffffffffffffff92831660209182029290920101527f0000000000000000000000000000000000000000000000000000000000000000166318cbafe5886127108681038a02048830876040518663ffffffff1660e01b81526004016107d395949392919061154e565b5f604051808303815f875af11580156107ee573d5f803e3d5ffd5b505050506040513d5f823e601f3d908101601f19168201604052610815919081019061148f565b9050858160018151811061082b5761082b6113d2565b602002602001015111156108e0577f000000000000000000000000000000000000000000000000000000000000000073ffffffffffffffffffffffffffffffffffffffff166108fc8783600181518110610887576108876113d2565b60200260200101516108999190611510565b6040518115909202915f818181858888f193505050501580156108be573d5f803e3d5ffd5b5085816001815181106108d3576108d36113d2565b6020026020010181815250505b8373ffffffffffffffffffffffffffffffffffffffff166108fc8260018151811061090d5761090d6113d2565b602002602001015190811502906040515f60405180830381858888f1935050505015801561093d573d5f803e3d5ffd5b509695505050505050565b610950610d55565b73ffffffffffffffffffffffffffffffffffffffff81166109f8576040517f08c379a000000000000000000000000000000000000000000000000000000000815260206004820152602660248201527f4f776e61626c653a206e6577206f776e657220697320746865207a65726f206160448201527f646472657373000000000000000000000000000000000000000000000000000060648201526084015b60405180910390fd5b610a0181610dd5565b50565b610a0c610d55565b73ffffffffffffffffffffffffffffffffffffffff8216610a6b5760405173ffffffffffffffffffffffffffffffffffffffff8216904780156108fc02915f818181858888f19350505050158015610a66573d5f803e3d5ffd5b505050565b6040517f70a08231000000000000000000000000000000000000000000000000000000008152306004820152610b1b90829073ffffffffffffffffffffffffffffffffffffffff8516906370a0823190602401602060405180830381865afa158015610ad9573d5f803e3d5ffd5b505050506040513d601f19601f82011682018060405250810190610afd9190611596565b73ffffffffffffffffffffffffffffffffffffffff85169190610b1f565b5050565b60405173ffffffffffffffffffffffffffffffffffffffff8316602482015260448101829052610a669084907fa9059cbb00000000000000000000000000000000000000000000000000000000906064015b60408051601f198184030181529190526020810180517bffffffffffffffffffffffffffffffffffffffffffffffffffffffff167fffffffff0000000000000000000000000000000000000000000000000000000090931692909217909152610e49565b801580610c7357506040517fdd62ed3e00000000000000000000000000000000000000000000000000000000815230600482015273ffffffffffffffffffffffffffffffffffffffff838116602483015284169063dd62ed3e90604401602060405180830381865afa158015610c4d573d5f803e3d5ffd5b505050506040513d601f19601f82011682018060405250810190610c719190611596565b155b610cff576040517f08c379a000000000000000000000000000000000000000000000000000000000815260206004820152603660248201527f5361666545524332303a20617070726f76652066726f6d206e6f6e2d7a65726f60448201527f20746f206e6f6e2d7a65726f20616c6c6f77616e63650000000000000000000060648201526084016109ef565b60405173ffffffffffffffffffffffffffffffffffffffff8316602482015260448101829052610a669084907f095ea7b30000000000000000000000000000000000000000000000000000000090606401610b71565b5f5473ffffffffffffffffffffffffffffffffffffffff163314610608576040517f08c379a000000000000000000000000000000000000000000000000000000000815260206004820181905260248201527f4f776e61626c653a2063616c6c6572206973206e6f7420746865206f776e657260448201526064016109ef565b5f805473ffffffffffffffffffffffffffffffffffffffff8381167fffffffffffffffffffffffff0000000000000000000000000000000000000000831681178455604051919092169283917f8be0079c531659141344cd1fd0a4f28419497f9722a3daafe3b4186f6b6457e09190a35050565b5f610eaa826040518060400160405280602081526020017f5361666545524332303a206c6f772d6c6576656c2063616c6c206661696c65648152508573ffffffffffffffffffffffffffffffffffffffff16610f569092919063ffffffff16565b905080515f1480610eca575080806020019051810190610eca91906115ad565b610a66576040517f08c379a000000000000000000000000000000000000000000000000000000000815260206004820152602a60248201527f5361666545524332303a204552433230206f7065726174696f6e20646964206e60448201527f6f7420737563636565640000000000000000000000000000000000000000000060648201526084016109ef565b6060610f6484845f85610f6c565b949350505050565b606082471015610ffe576040517f08c379a000000000000000000000000000000000000000000000000000000000815260206004820152602660248201527f416464726573733a20696e73756666696369656e742062616c616e636520666f60448201527f722063616c6c000000000000000000000000000000000000000000000000000060648201526084016109ef565b5f808673ffffffffffffffffffffffffffffffffffffffff16858760405161102691906115ee565b5f6040518083038185875af1925050503d805f8114611060576040519150601f19603f3d011682016040523d82523d5f602084013e611065565b606091505b509150915061107687838387611081565b979650505050505050565b606083156111165782515f0361110f5773ffffffffffffffffffffffffffffffffffffffff85163b61110f576040517f08c379a000000000000000000000000000000000000000000000000000000000815260206004820152601d60248201527f416464726573733a2063616c6c20746f206e6f6e2d636f6e747261637400000060448201526064016109ef565b5081610f64565b610f64838381511561112b5781518083602001fd5b806040517f08c379a00000000000000000000000000000000000000000000000000000000081526004016109ef9190611609565b7f4e487b71000000000000000000000000000000000000000000000000000000005f52604160045260245ffd5b604051601f8201601f1916810167ffffffffffffffff811182821017156111b5576111b561115f565b604052919050565b5f67ffffffffffffffff8211156111d6576111d661115f565b5060051b60200190565b803573ffffffffffffffffffffffffffffffffffffffff81168114611203575f80fd5b919050565b5f82601f830112611217575f80fd5b8135602061122c611227836111bd565b61118c565b82815260059290921b8401810191818101908684111561124a575f80fd5b8286015b8481101561093d5761125f816111e0565b835291830191830161124e565b5f805f805f60a08688031215611280575f80fd5b85359450602086013567ffffffffffffffff81111561129d575f80fd5b6112a988828901611208565b9450506112b8604087016111e0565b94979396509394606081013594506080013592915050565b602080825282518282018190525f9190848201906040850190845b81811015611307578351835292840192918401916001016112eb565b50909695505050505050565b5f805f805f8060c08789031215611328575f80fd5b8635955060208701359450604087013567ffffffffffffffff81111561134c575f80fd5b61135889828a01611208565b945050611367606088016111e0565b92506080870135915060a087013590509295509295509295565b5f60208284031215611391575f80fd5b61139a826111e0565b9392505050565b5f80604083850312156113b2575f80fd5b6113bb836111e0565b91506113c9602084016111e0565b90509250929050565b7f4e487b71000000000000000000000000000000000000000000000000000000005f52603260045260245ffd5b5f8151808452602080850194508084015f5b8381101561144357815173ffffffffffffffffffffffffffffffffffffffff1687529582019590820190600101611411565b509495945050505050565b848152608060208201525f61146660808301866113ff565b73ffffffffffffffffffffffffffffffffffffffff949094166040830152506060015292915050565b5f60208083850312156114a0575f80fd5b825167ffffffffffffffff8111156114b6575f80fd5b8301601f810185136114c6575f80fd5b80516114d4611227826111bd565b81815260059190911b820183019083810190878311156114f2575f80fd5b928401925b82841015611076578351825292840192908401906114f7565b81810381811115611548577f4e487b71000000000000000000000000000000000000000000000000000000005f52601160045260245ffd5b92915050565b85815284602082015260a060408201525f61156c60a08301866113ff565b73ffffffffffffffffffffffffffffffffffffffff94909416606083015250608001529392505050565b5f602082840312156115a6575f80fd5b5051919050565b5f602082840312156115bd575f80fd5b8151801515811461139a575f80fd5b5f5b838110156115e65781810151838201526020016115ce565b50505f910152565b5f82516115ff8184602087016115cc565b9190910192915050565b602081525f82518060208401526116278160408501602087016115cc565b601f01601f1916919091016040019291505056fea264697066735822122090bc02d27212c221e1f292ea0458627674e34c94901a8d46764e0d633d40969464736f6c63430008150033",
  "args": [
    "0xF3f757b6a5110351AA1444c81ba256a505c39a31",
    "0xE9290C80b28db1B3d9853aB1EE60c6630B87F57E",
    "0xc02aaa39b223fe8d0a0e5c4f27ead9083c756cc2",
    "0x7a250d5630B4cF539739dF2C5dAcb4c659F2488D"
  ]
}