{
  "address": "0xF3f757b6a5110351AA1444c81ba256a505c39a31",
  "abi": [
    {
      "inputs": [],
      "stateMutability": "nonpayable",
      "type": "constructor"
    },
    {
      "anonymous": false,
      "inputs": [
        {
          "indexed": true,
          "internalType": "bytes32",
          "name": "role",
          "type": "bytes32"
        },
        {
          "indexed": true,
          "internalType": "bytes32",
          "name": "previousAdminRole",
          "type": "bytes32"
        },
        {
          "indexed": true,
          "internalType": "bytes32",
          "name": "newAdminRole",
          "type": "bytes32"
        }
      ],
      "name": "RoleAdminChanged",
      "type": "event"
    },
    {
      "anonymous": false,
      "inputs": [
        {
          "indexed": true,
          "internalType": "bytes32",
          "name": "role",
          "type": "bytes32"
        },
        {
          "indexed": true,
          "internalType": "address",
          "name": "account",
          "type": "address"
        },
        {
          "indexed": true,
          "internalType": "address",
          "name": "sender",
          "type": "address"
        }
      ],
      "name": "RoleGranted",
      "type": "event"
    },
    {
      "anonymous": false,
      "inputs": [
        {
          "indexed": true,
          "internalType": "bytes32",
          "name": "role",
          "type": "bytes32"
        },
        {
          "indexed": true,
          "internalType": "address",
          "name": "account",
          "type": "address"
        },
        {
          "indexed": true,
          "internalType": "address",
          "name": "sender",
          "type": "address"
        }
      ],
      "name": "RoleRevoked",
      "type": "event"
    },
    {
      "inputs": [],
      "name": "DEFAULT_ADMIN_ROLE",
      "outputs": [
        {
          "internalType": "bytes32",
          "name": "",
          "type": "bytes32"
        }
      ],
      "stateMutability": "view",
      "type": "function"
    },
    {
      "inputs": [],
      "name": "TRANSFER_ROLE",
      "outputs": [
        {
          "internalType": "bytes32",
          "name": "",
          "type": "bytes32"
        }
      ],
      "stateMutability": "view",
      "type": "function"
    },
    {
      "inputs": [
        {
          "internalType": "bytes32",
          "name": "role",
          "type": "bytes32"
        }
      ],
      "name": "getRoleAdmin",
      "outputs": [
        {
          "internalType": "bytes32",
          "name": "",
          "type": "bytes32"
        }
      ],
      "stateMutability": "view",
      "type": "function"
    },
    {
      "inputs": [
        {
          "internalType": "bytes32",
          "name": "role",
          "type": "bytes32"
        },
        {
          "internalType": "address",
          "name": "account",
          "type": "address"
        }
      ],
      "name": "grantRole",
      "outputs": [],
      "stateMutability": "nonpayable",
      "type": "function"
    },
    {
      "inputs": [
        {
          "internalType": "bytes32",
          "name": "role",
          "type": "bytes32"
        },
        {
          "internalType": "address",
          "name": "account",
          "type": "address"
        }
      ],
      "name": "hasRole",
      "outputs": [
        {
          "internalType": "bool",
          "name": "",
          "type": "bool"
        }
      ],
      "stateMutability": "view",
      "type": "function"
    },
    {
      "inputs": [
        {
          "internalType": "bytes32",
          "name": "role",
          "type": "bytes32"
        },
        {
          "internalType": "address",
          "name": "account",
          "type": "address"
        }
      ],
      "name": "renounceRole",
      "outputs": [],
      "stateMutability": "nonpayable",
      "type": "function"
    },
    {
      "inputs": [
        {
          "internalType": "bytes32",
          "name": "role",
          "type": "bytes32"
        },
        {
          "internalType": "address",
          "name": "account",
          "type": "address"
        }
      ],
      "name": "revokeRole",
      "outputs": [],
      "stateMutability": "nonpayable",
      "type": "function"
    },
    {
      "inputs": [
        {
          "internalType": "bytes4",
          "name": "interfaceId",
          "type": "bytes4"
        }
      ],
      "name": "supportsInterface",
      "outputs": [
        {
          "internalType": "bool",
          "name": "",
          "type": "bool"
        }
      ],
      "stateMutability": "view",
      "type": "function"
    },
    {
      "inputs": [
        {
          "internalType": "address",
          "name": "token",
          "type": "address"
        },
        {
          "internalType": "address",
          "name": "from",
          "type": "address"
        },
        {
          "internalType": "address",
          "name": "to",
          "type": "address"
        },
        {
          "internalType": "uint256",
          "name": "amount",
          "type": "uint256"
        }
      ],
      "name": "transferFrom",
      "outputs": [],
      "stateMutability": "nonpayable",
      "type": "function"
    },
    {
      "inputs": [
        {
          "internalType": "address",
          "name": "token",
          "type": "address"
        },
        {
          "internalType": "address",
          "name": "recipient",
          "type": "address"
        }
      ],
      "name": "withdraw",
      "outputs": [],
      "stateMutability": "nonpayable",
      "type": "function"
    }
  ],
  "transactionHash": "0xe4b58da555756bc89bea2abc22ca24ff3a4cbf5f97b2a455b2003a2eb12ae0d0",
  "bytecode": "0x608060405234801561000f575f80fd5b5061001a5f3361001f565b6100bc565b5f828152602081815260408083206001600160a01b038516845290915290205460ff166100b8575f828152602081815260408083206001600160a01b03851684529091529020805460ff191660011790556100773390565b6001600160a01b0316816001600160a01b0316837f2f8788117e7eff1d82e926ec794901d17c78024a50270940304540a733656f0d60405160405180910390a45b5050565b611179806100c95f395ff3fe608060405234801561000f575f80fd5b50600436106100b9575f3560e01c806336568abe11610072578063a217fddf11610058578063a217fddf146101ba578063d547741f146101c1578063f940e385146101d4575f80fd5b806336568abe1461016457806391d1485414610177575f80fd5b8063206b60f9116100a2578063206b60f9146100fa578063248a9ca31461012f5780632f2ff15d14610151575f80fd5b806301ffc9a7146100bd57806315dacbea146100e5575b5f80fd5b6100d06100cb366004610e03565b6101e7565b60405190151581526020015b60405180910390f35b6100f86100f3366004610e6a565b61027f565b005b6101217f8502233096d909befbda0999bb8ea2f3a6be3c138b9fbf003752a4c8bce86f6c81565b6040519081526020016100dc565b61012161013d366004610eb2565b5f9081526020819052604090206001015490565b6100f861015f366004610ec9565b6102d2565b6100f8610172366004610ec9565b6102fb565b6100d0610185366004610ec9565b5f9182526020828152604080842073ffffffffffffffffffffffffffffffffffffffff93909316845291905290205460ff1690565b6101215f81565b6100f86101cf366004610ec9565b6103b3565b6100f86101e2366004610ef3565b6103d7565b5f7fffffffff0000000000000000000000000000000000000000000000000000000082167f7965db0b00000000000000000000000000000000000000000000000000000000148061027957507f01ffc9a7000000000000000000000000000000000000000000000000000000007fffffffff000000000000000000000000000000000000000000000000000000008316145b92915050565b7f8502233096d909befbda0999bb8ea2f3a6be3c138b9fbf003752a4c8bce86f6c6102a9816104f1565b6102cb73ffffffffffffffffffffffffffffffffffffffff86168585856104fe565b5050505050565b5f828152602081905260409020600101546102ec816104f1565b6102f683836105da565b505050565b73ffffffffffffffffffffffffffffffffffffffff811633146103a5576040517f08c379a000000000000000000000000000000000000000000000000000000000815260206004820152602f60248201527f416363657373436f6e74726f6c3a2063616e206f6e6c792072656e6f756e636560448201527f20726f6c657320666f722073656c66000000000000000000000000000000000060648201526084015b60405180910390fd5b6103af82826106c8565b5050565b5f828152602081905260409020600101546103cd816104f1565b6102f683836106c8565b5f6103e1816104f1565b73ffffffffffffffffffffffffffffffffffffffff83166104415760405173ffffffffffffffffffffffffffffffffffffffff8316904780156108fc02915f818181858888f1935050505015801561043b573d5f803e3d5ffd5b50505050565b6040517f70a082310000000000000000000000000000000000000000000000000000000081523060048201526102f690839073ffffffffffffffffffffffffffffffffffffffff8616906370a0823190602401602060405180830381865afa1580156104af573d5f803e3d5ffd5b505050506040513d601f19601f820116820180604052508101906104d39190610f1b565b73ffffffffffffffffffffffffffffffffffffffff8616919061077d565b6104fb81336107d3565b50565b60405173ffffffffffffffffffffffffffffffffffffffff8085166024830152831660448201526064810182905261043b9085907f23b872dd00000000000000000000000000000000000000000000000000000000906084015b604080517fffffffffffffffffffffffffffffffffffffffffffffffffffffffffffffffe08184030181529190526020810180517bffffffffffffffffffffffffffffffffffffffffffffffffffffffff167fffffffff000000000000000000000000000000000000000000000000000000009093169290921790915261088a565b5f8281526020818152604080832073ffffffffffffffffffffffffffffffffffffffff8516845290915290205460ff166103af575f8281526020818152604080832073ffffffffffffffffffffffffffffffffffffffff85168452909152902080547fffffffffffffffffffffffffffffffffffffffffffffffffffffffffffffff0016600117905561066a3390565b73ffffffffffffffffffffffffffffffffffffffff168173ffffffffffffffffffffffffffffffffffffffff16837f2f8788117e7eff1d82e926ec794901d17c78024a50270940304540a733656f0d60405160405180910390a45050565b5f8281526020818152604080832073ffffffffffffffffffffffffffffffffffffffff8516845290915290205460ff16156103af575f8281526020818152604080832073ffffffffffffffffffffffffffffffffffffffff8516808552925280832080547fffffffffffffffffffffffffffffffffffffffffffffffffffffffffffffff0016905551339285917ff6391f5c32d9c69d2a47ea670b442974b53935d1edc7fd64eb21e047a839171b9190a45050565b60405173ffffffffffffffffffffffffffffffffffffffff83166024820152604481018290526102f69084907fa9059cbb0000000000000000000000000000000000000000000000000000000090606401610558565b5f8281526020818152604080832073ffffffffffffffffffffffffffffffffffffffff8516845290915290205460ff166103af5761081081610997565b61081b8360206109b6565b60405160200161082c929190610f54565b604080517fffffffffffffffffffffffffffffffffffffffffffffffffffffffffffffffe0818403018152908290527f08c379a000000000000000000000000000000000000000000000000000000000825261039c91600401610fd4565b5f6108eb826040518060400160405280602081526020017f5361666545524332303a206c6f772d6c6576656c2063616c6c206661696c65648152508573ffffffffffffffffffffffffffffffffffffffff16610bfa9092919063ffffffff16565b905080515f148061090b57508080602001905181019061090b9190611024565b6102f6576040517f08c379a000000000000000000000000000000000000000000000000000000000815260206004820152602a60248201527f5361666545524332303a204552433230206f7065726174696f6e20646964206e60448201527f6f74207375636365656400000000000000000000000000000000000000000000606482015260840161039c565b606061027973ffffffffffffffffffffffffffffffffffffffff831660145b60605f6109c4836002611070565b6109cf906002611087565b67ffffffffffffffff8111156109e7576109e761109a565b6040519080825280601f01601f191660200182016040528015610a11576020820181803683370190505b5090507f3000000000000000000000000000000000000000000000000000000000000000815f81518110610a4757610a476110c7565b60200101907effffffffffffffffffffffffffffffffffffffffffffffffffffffffffffff191690815f1a9053507f780000000000000000000000000000000000000000000000000000000000000081600181518110610aa957610aa96110c7565b60200101907effffffffffffffffffffffffffffffffffffffffffffffffffffffffffffff191690815f1a9053505f610ae3846002611070565b610aee906001611087565b90505b6001811115610b8a577f303132333435363738396162636465660000000000000000000000000000000085600f1660108110610b2f57610b2f6110c7565b1a60f81b828281518110610b4557610b456110c7565b60200101907effffffffffffffffffffffffffffffffffffffffffffffffffffffffffffff191690815f1a90535060049490941c93610b83816110f4565b9050610af1565b508315610bf3576040517f08c379a000000000000000000000000000000000000000000000000000000000815260206004820181905260248201527f537472696e67733a20686578206c656e67746820696e73756666696369656e74604482015260640161039c565b9392505050565b6060610c0884845f85610c10565b949350505050565b606082471015610ca2576040517f08c379a000000000000000000000000000000000000000000000000000000000815260206004820152602660248201527f416464726573733a20696e73756666696369656e742062616c616e636520666f60448201527f722063616c6c0000000000000000000000000000000000000000000000000000606482015260840161039c565b5f808673ffffffffffffffffffffffffffffffffffffffff168587604051610cca9190611128565b5f6040518083038185875af1925050503d805f8114610d04576040519150601f19603f3d011682016040523d82523d5f602084013e610d09565b606091505b5091509150610d1a87838387610d25565b979650505050505050565b60608315610dba5782515f03610db35773ffffffffffffffffffffffffffffffffffffffff85163b610db3576040517f08c379a000000000000000000000000000000000000000000000000000000000815260206004820152601d60248201527f416464726573733a2063616c6c20746f206e6f6e2d636f6e7472616374000000604482015260640161039c565b5081610c08565b610c088383815115610dcf5781518083602001fd5b806040517f08c379a000000000000000000000000000000000000000000000000000000000815260040161039c9190610fd4565b5f60208284031215610e13575f80fd5b81357fffffffff0000000000000000000000000000000000000000000000000000000081168114610bf3575f80fd5b803573ffffffffffffffffffffffffffffffffffffffff81168114610e65575f80fd5b919050565b5f805f8060808587031215610e7d575f80fd5b610e8685610e42565b9350610e9460208601610e42565b9250610ea260408601610e42565b9396929550929360600135925050565b5f60208284031215610ec2575f80fd5b5035919050565b5f8060408385031215610eda575f80fd5b82359150610eea60208401610e42565b90509250929050565b5f8060408385031215610f04575f80fd5b610f0d83610e42565b9150610eea60208401610e42565b5f60208284031215610f2b575f80fd5b5051919050565b5f5b83811015610f4c578181015183820152602001610f34565b50505f910152565b7f416363657373436f6e74726f6c3a206163636f756e742000000000000000000081525f8351610f8b816017850160208801610f32565b7f206973206d697373696e6720726f6c65200000000000000000000000000000006017918401918201528351610fc8816028840160208801610f32565b01602801949350505050565b602081525f8251806020840152610ff2816040850160208701610f32565b601f017fffffffffffffffffffffffffffffffffffffffffffffffffffffffffffffffe0169190910160400192915050565b5f60208284031215611034575f80fd5b81518015158114610bf3575f80fd5b7f4e487b71000000000000000000000000000000000000000000000000000000005f52601160045260245ffd5b808202811582820484141761027957610279611043565b8082018082111561027957610279611043565b7f4e487b71000000000000000000000000000000000000000000000000000000005f52604160045260245ffd5b7f4e487b71000000000000000000000000000000000000000000000000000000005f52603260045260245ffd5b5f8161110257611102611043565b507fffffffffffffffffffffffffffffffffffffffffffffffffffffffffffffffff0190565b5f8251611139818460208701610f32565b919091019291505056fea26469706673582212202aea481343a036611784aceb8060b3daf41977dfe049eeb0356dd200a7cd17dc64736f6c63430008150033",
  "args": []
}